:020000040800F2
:10000000F8BF01206556050897C9040885C904088A
:1000100099C90408A9C90408B9C904080000000066
:10002000000000000000000000000000C9C9040832
:10003000CBC90408000000001DDA040879DA0408BE
:1000400045550508B9CA0408C5CA0408CDCA04083C
:100050009D460508455505084DCA040853CA0408BD
:1000600059CA04085FCA040865CA040805FE0408E2
:1000700015FE040825FE040835FE040845FE0408A4
:1000800055FE040865FE04084555050800000000FB
:100090000000000000000000000000006BCA04081F
:1000A000E1CA0408E7CA0408F9CA0408FFCA040838
:1000B00005CB04080BCB040811CB040843CB040880
:1000C00049CB04084FCB040855CB04084555050817
:1000D0004555050831CB040837CB04080000000063
:1000E0008FCA0408BFCA0408D9C904080000000068
:1000F00000000000000000000000000075FE040881
:10010000000000004555050819CB040845550508B1
:1001100000000000000000000000000000000000DF
:1001200085FE040895FE0408A5FE0408B5FE040833
:10013000C5FE0408000000000000000000000000F0
:10014000000000000000000000000000CDC904080D
:10015000D5FE0408E5FE0408F5FE04083DCB0408BE
:100160005BCB040861CB0408000000000000000025
:10017000000000000000000000000000000000007F
:1001800000000000455505080000000000000000C8
:10019000455505084555050842884378007843EAE7
:1001A000022340EA032070470B0A017043700B0CD6
:1001B000090E8370C1707047036A0239023B99428D
:1001C0003DBFC389406B01FB03000020704702461E
:1001D00000F10B010020C30143EA500312F8010BA8
:1001E00050FA83F38A42D8B2F5D1704737B50D463D
:1001F000044620B9092000232B6003B030BD0368FA
:10020000002BF7D05A79002AF4D081885A8991427C
:10021000F0D10DF107020621186802F00BFB00284F
:10022000E8D19DF8070010F00100E3D12368E3E76F
:1002300038B50368044618785D1C20B140F2B5114A
:1002400055F06CFA08B1256038BD4FF0FF3038BD6D
:10025000CA7E8B7E032843EA022301BF487D0A7DC4
:1002600042EA002243EA024318467047C2F30723DA
:100270008A76CB760378032B01BF120C0A75120A1B
:100280004A75704770B5C37904460BB9002070BD3C
:1002900000F13C06826B00680123314602F0B5FA9A
:1002A00080B9A16BE36A626AE071CB1A9342EDD226
:1002B000A379022BEAD10A4401233146206802F0D7
:1002C000A4FAE3E7012070BDF8B50446FFF7DAFFB2
:1002D0000546002842D16379032B37D1277A012FB5
:1002E00034D104F13C0601464FF40072304643F02D
:1002F00093FC552384F83A32AA2384F83B325223E4
:100300004122722184F83C3084F83D30612384F826
:100310003E3084F83F2084F8222284F8233284F887
:10032000201284F8211204F50970A169FFF73CFF3F
:10033000616904F50A70FFF737FFA26A206801328D
:10034000A2633B46314602F060FA25720022114654
:10035000206802F06FFA003018BF0120F8BD836BEF
:100360008B4270B506460D4612D0FFF78BFF044650
:1003700060B92A46012306F13C01306802F036FAE2
:1003800000281CBF4FF0FF350124B563204670BD27
:100390000024FBE7002310B5C3714FF0FF338363E4
:1003A0000446FFF7DCFF18BB94F83B2294F83A327E
:1003B00043EA02234AF6552293421BD194F83C307B
:1003C000EB2B03D01833DBB2012B15D803220B49DA
:1003D00004F1720043F034FC78B10522084904F1BD
:1003E0008E0043F02DFC002814BF0220002010BD19
:1003F000042010BD032010BD022010BD11F006081E
:1004000015F006082DE9F041437986B0044601F065
:10041000FE059BB10DF107020621006802F00AFA01
:100420009DF80700C60709D4002D00F0C08010F029
:10043000040000D00A2006B0BDE8F08100236371FB
:1004400005210DF10702206802F0F4F99DF807304C
:10045000D90700F1AE800DB15A07EBD40021204638
:10046000FFF798FF0228034603D001282AD82579F0
:100470007DB304F20225002102AF15F8040C10B17F
:100480002846FFF789FE47F821000131042905F1CC
:100490001005F2D1267906B1013E57F8265055B124
:1004A00029462046FFF776FF034622792AB1042B1E
:1004B0000BD10120BFE70323F7E7012B09D9013650
:1004C000032EEAD9042B02D1F3E7012B01D90D2029
:1004D000B1E794F8482094F8473043EA0223B3F593
:1004E000007FF4D194F8533094F8526056EA032612
:1004F00004D104F16000FFF74FFE064694F84C105B
:1005000066624B1E012BA171E1D894F849801FFA55
:1005100088F3E381002BDAD008F1FF3313EA080FE8
:10052000D5D194F84E3094F84D7047EA03273B0735
:10053000A781CCD194F8503094F84F0050EA0320B2
:1005400003D104F15C00FFF727FE94F84B2094F8E8
:100550004A3053EA0223BAD006FB01FE03EB17121E
:1005600072448242B3D84849801AB0FBF8F000F1D7
:10057000FF3C8C45ABD84FF6F57188422B4400F117
:1005800002012A441ED840F6F57C60452162A5622E
:10059000E36262630FD8002F99D07344236301EBA9
:1005A000410301F0010101EB5301012720E028463E
:1005B00041E703203FE7002F89D0734423634900BC
:1005C000022715E0E362626394F8663094F86720CE
:1005D000216253EA0223A5627FF479AF002F7FF4F2
:1005E00076AF04F16800FFF7D7FD03272063890089
:1005F00001F2FF11B6EB512FFFF469AF4FF0FF335B
:10060000A3616361032F4FF0800323722FD194F80D
:100610006D2094F86C3043EA0223012B27D1691C2A
:100620002046FFF79CFE10BB94F83B2294F83A3228
:10063000207243EA02234AF65522934217D104F16D
:100640003C00FFF7A9FD114B984210D104F508704A
:10065000FFF7A2FD0E4B984209D104F50970FFF790
:100660009BFDA06104F50A70FFF796FD6061094AE1
:100670006771138801339BB2138063810020064B9E
:100680002361E061D7E600BFF4FFFF0F52526141E2
:1006900072724161241A0020261A002001292DE9D6
:1006A000F04705460C46174672D9036A99426FD245
:1006B0004379022B3FD0032B50D0012B68D101EBA3
:1006C0005108C16A01EB5821FFF749FE064638BBC5
:1006D00005F13C0908F1010AC8F3080814F0010407
:1006E0001FBF19F8083003F00F023B0103F0F003BD
:1006F00014BF1343FBB209F80830E96A0123EB7118
:1007000001EB5A212846FFF72AFE064640B9CAF3F4
:10071000080A44B1C7F3071709F80A700123EB71FF
:100720003046BDE8F08719F80A30C7F3032723F0F5
:100730000F031F43F0E7C16A01EB1421FFF70FFE1F
:1007400006460028ECD1640005F13C0304F4FF7474
:100750001A191F55C7F307275770DFE7C16A01EB66
:10076000D411FFF7FCFD06460028D9D1A40005F1FD
:100770003C0304F4FE741C442046FFF70DFD27F0F3
:10078000704700F0704139432046FFF70DFDC5E783
:100790000226C5E70129F8B505460C4652D9036A79
:1007A00099424FD24379022B29D0032B38D0012B09
:1007B00048D101EB5106C16A01EB5621FFF7CFFD8D
:1007C00010B14FF0FF30F8BD771CE96AC6F3080698
:1007D0002E4401EB5721284696F83C60FFF7BFFDF9
:1007E0000028EED1C7F308073D44E30795F83C0025
:1007F00046EA00204CBF0009C0F30B00F8BDC16AF7
:1008000001EB1421FFF7ABFD0028DAD164003C3581
:1008100004F4FF742B19285D5B7840EA0320F8BDCF
:10082000C16A01EBD411FFF79AFD0028C9D1A400D9
:1008300005F13C0004F4FE742044FFF7ADFC20F009
:100840007040F8BD0120F8BDB1F5001FF8B50646AF
:100850000D4601D30220F8BDCA06FBD182680468A8
:100860003161C2B96379022B01D9236BA3B9A38982
:10087000B3EB551FEED9236BB361B3697261002BE3
:10088000E8D003EB55233C34C5F308052C44B36191
:10089000F4610020F8BD1346E7891A467F02BD4285
:1008A000114604D22046FFF787FCB061E5E73068C7
:1008B000FFF770FF431C024606D00128CAD9236AFD
:1008C0009842C7D2ED1BEAE70120F8BD2DE9F041BF
:1008D000804605680F4649B96E69CEB12B6A9E42C3
:1008E00028BF0126AB69ABB9002409E02846FFF711
:1008F00051FF0128044658D9421C04D14FF0FF345F
:100900002046BDE8F0812B6A9842F9D33E46E9E7DC
:100910000126E7E7BE4215D12B6AD8F80000741C07
:100920009C4228BF02242146FFF734FF01283CD017
:10093000431CE3D0D8B16B69012B03D92A6A9342D7
:1009400038BF1E4634462B6A01349C4202D3012E26
:10095000CAD902242146D8F80000FFF71BFF40B196
:10096000012822D00130C9D0B442ECD1BCE7002C20
:10097000E8D04FF0FF3221462846FFF78FFE90B9AE
:1009800057B92A6AAB696C61023A93420FD92B7A44
:1009900043F001032B72B3E7224639462846FFF79E
:1009A0007DFE0028EDD00128A8D00124A8E7013B56
:1009B000AB61ECE7F8B50D46012D0746114601D8AD
:1009C0000220F8BD0468236A9D42F9D22AB14FF093
:1009D000FF322046FFF762FE08BB29463868FFF762
:1009E000D9FE064608B90020F8BD0128E8D0431C0E
:1009F00014D0002229462046FFF750FE78B9226A1B
:100A0000A369911E8B4205D20133A361237A43F07F
:100A10000103237296423546DFD3E4E70120F8BD97
:100A2000F8B505460E46FFF72DFC0446F8B93146E9
:100A30002846FFF7C1FB05F13C060746A8634FF4C3
:100A400000722146304643F0E7F8EB899C4204D31C
:100A5000E889001B18BF0120F8BD01233A1931466F
:100A6000286801F0D2FE0028F2D10134EDE7012020
:100A7000F8BD2DE9F843076905682037B7F5001F71
:100A800024BF0023836183690446894673B1C7F399
:100A90000808B8F1000F3BD141690133836141B9C6
:100AA000AB89B3EB571F33D80023A3610420BDE803
:100AB000F883EB89013B13EA572329D12846FFF736
:100AC00069FE0128064602D80220BDE8F883421CD0
:100AD00002D10120BDE8F8832B6A984212D3B9F104
:100AE000000FE1D061692046FFF7F0FE0646B0B185
:100AF0000128E9D0431CECD001462846FFF790FFBF
:100B00000028E6D1666131462846FFF755FBA06113
:100B10003C3545442761E5610020BDE8F8830720A6
:100B2000BDE8F883F8B50F46002104460668FFF7D4
:100B30008BFEA8B90546A1693046FFF710FC78B9CD
:100B4000E3691B78E52B00D01BB90135BD4201D10B
:100B5000F8BD054601212046FFF78BFF0028EAD0AB
:100B6000042808BF0720F8BD2DE9F84F4FF0FF0A11
:100B700005684A4F81460E4654464FF0040B4FF627
:100B8000FF78D9F8181019B9BBF1000F76D06CE0D6
:100B90002846FFF7E4FB8346002866D1D9F81C00FD
:100BA0000278002A76D0C37AE52A03F03F0389F859
:100BB000063052D02E2A50D023F02001A1F1080C8B
:100BC000DCF1000141EB0C01B14246D10F2B50D1B9
:100BD00051063CD5D9F81030417BC9F82C3002F0D1
:100BE000BF0290F80DA08A4552D1C17E837E43EAB0
:100BF00001231BB28BBB0178D5F810E021F0400136
:100C000001390D2461434FF0010CDC5D00EB040B56
:100C1000045D9BF801B044EA0B24BCF1000F1AD02C
:100C2000FF291AD82EF81140A446013101330D2BAB
:100C3000EBD103785B0607D5BCF1000F04D0FF2988
:100C40000BD800232EF81130541EE4B206E0944273
:100C500003D15146C5E74445E8D0FF24002148466A
:100C6000FFF707FF834600288BD00023C9F8183010
:100C700006E044B9FFF7ABFA824504D14FF0000B10
:100C80005846BDE8F88F4FF0FF33C9F82C30F7E72E
:100C90008A46E2E74FF0040BE7E700BFF2EF0608F1
:100CA000C16A4B1C2DE9F04104460568066918D15C
:100CB000E5274FF00108A1692846FFF750FB60B90E
:100CC000E3691F7085F8078023699E420DD90146AC
:100CD0002046FFF7CEFE0028EDD0042808BF0220F2
:100CE00003E0FFF7B1FD0028E2D0BDE8F08100008D
:100CF0002DE9F04F002185B00446D0F800A0FFF7A1
:100D0000A3FD8046002840F094804FF0FF334FF061
:100D1000FF09E3624E46A1695046FFF720FB80467B
:100D2000002840F08680E5692F78002F00F087804A
:100D3000EA7AE52F02F03F03A37103D0120705D52D
:100D40000F2B05D04FF0FF33E36257E00F2B5ED13E
:100D500094F82B30580652D4790647D522696B7B1C
:100D6000E26207F0BF0795F80D90994565D1EB7EDB
:100D7000AE7E46EA032636B2002E3FD195F80080BB
:100D8000DAF810B008F03F0808F1FF334FF00D0813
:100D900008FB03F801212B4BF25CAB185878AB5CD5
:100DA00043EA002331B3B8F1FF0F27D81846039365
:100DB00054F0C8FC08F1010202903BF818000192BF
:100DC00054F0C0FC0299814218D1039B019A194644
:100DD000904601360D2EDED12B785A0603D511B17F
:100DE0003BF8183053B9013FFEB208E0BE4205D1CE
:100DF0004B46B8E74FF6FF729342EAD0FF26002138
:100E00002046FFF736FE8046002884D011E026B940
:100E10002846FFF7DCF981450BD094F82B30DB072F
:100E200090D40B2204F12001284642F009FF00284B
:100E300088D1404605B0BDE8F08F9946DEE74FF017
:100E40000408F6E7F2EF06082DE9F04F90F82BB012
:100E50001BF0A00489B0054640F0828007683A691B
:100E600032F81430002B5CD105F1200696E807001B
:100E70000DF114091BF0010F89E8070077D040231A
:100E800085F82B304FF0010899E80700B6463B691A
:100E9000AEE803002EF8022BB8F1050F4FEA12421C
:100EA0008EF8002055D84246072102F00F0E0EF1B1
:100EB0003000392801F1FF3103AB88BF0EF1370054
:100EC00003EB010E12098EF80100EED108AB5818A1
:100ED0004FF07E0E00F814EC91423FD0B05C202819
:100EE0003AD1324407299BBF08AB5818202010F88C
:100EF000140C02F8010BA2EB060098BF0131072881
:100F0000F0D92846FFF7F4FE824660BB08F10108DD
:100F1000B8F1640FB8D14FF0070A504609B0BDE8E8
:100F2000F08F01349CE74FF0100E01F0010C0CEB38
:100F30004202D30344BF82F4883282F02102BEF120
:100F4000010E4FEA5101F0D130F8021F0029EAD119
:100F5000AAE7981E4246F7E70132BDE70A46C0E716
:100F60004FF0060AD9E70428D7D185F82BB01BF03B
:100F7000020F1BBF0C340D230124B4FBF3F418BF84
:100F8000013421462846FFF7CDFD82460028C4D112
:100F9000013C56D029692846A1EB4411FFF754FCC7
:100FA00082460028B9D13046FFF711F94FF6FF7994
:100FB0008046A9693846FFF7D2F982460028ACD1AD
:100FC000EB69D7F810C083F80D800F22E1B24FF023
:100FD0000D0EDA724A1E0EFB02F218739876D8765E
:100FE0000192864648451FBF019A3CF81200013223
:100FF0000192234A1EF802A00EF1010E03EB0A0B28
:1010000003F80A004FEA102A002808BF4846BEF13C
:101010000D0F8BF801A0E5D1484503D0019A3CF8AB
:1010200012200AB941F0400119700123FB7100211F
:101030002846FFF71EFD824600287FF46EAF013C74
:10104000B7D1A9693846FFF78AF9824600287FF4AC
:1010500064AF20225146E86942F0DEFD03CEEB6921
:1010600018605960B278318819819A7295F82B30DE
:10107000EA6903F0180313730123FB714DE700BF06
:10108000F2EF06082DE9F0470026D0F800908E75A3
:10109000836907460C46002B00F09780C36A013332
:1010A0000DD0B0463546D9F81030985B002843D1B2
:1010B000B8F1000F18BF002525440023AB75F8696F
:1010C0000023451E19462E2615F8012F202A01F16E
:1010D000010110D0052A08BFE522092906D10B2BF2
:1010E0009EBF04EB030E01338EF8096004EB030E80
:1010F00001338EF809200B29E6D1E2180021517244
:10110000A27D002A4DD1002B42D004F1090108250F
:10111000134611F8012B002A3DD092B22E2AA2F1DB
:10112000410608BF1025192E03D8067B354218BF8B
:1011300020320A730133ECE7B8F1000F05D100F556
:1011400020539BB2B3F5006F13D340F2B51140EAC0
:10115000084054F0C3FAFF28C5F1FF0A0CD9BAF1D0
:10116000010F11D96319020A9A75D87502231D441B
:1011700000200236804696E730B1BAF1000F05D064
:10118000631998750123F2E7002591E755468FE72B
:101190003F23A3750123234400229A75037B03B9DF
:1011A0006372F969CB7A237201F11C00FEF7F4FF38
:1011B0002060CA7D8B7D43EA0223E3804A7E0B7E5A
:1011C00043EA0223A380BDE8F087BDE8F087000072
:1011D0002DE9F04F87B0036801930B782F2B06465B
:1011E000894601D05C2B0AD14A4613782F2B9146B1
:1011F00002F10102F9D05C2BF7D0002301E0019B42
:10120000DB69B36099F800301F2B00F294808023D3
:1012100086F82B3000213046FFF716FB07B0BDE8FB
:10122000F08FFE2D00F2B0802AF81530013588E0ED
:1012300009F101020592DDF8149099F800202F2A97
:10124000F6D05C2AF4D01F2B8CBF00240424012D7F
:101250003ED1BAF800302E2B41D00AEB4503002DC9
:1012600040F0948000230AEB45022AF81530002D47
:1012700000F08A803AF81310202900F090800BB912
:101280002E2902D144F00304E4B232F8021D2E29C3
:1012900001D0013DF9D14FF020314FF000087162CB
:1012A0003162C6F827104FF0080B47463AF8130092
:1012B0005A1C002800F0E880202804D02E2870D185
:1012C000AA4200F0D78044F00304E4B21346EDE7ED
:1012D000022DC2D1BAF802302E2BBED1B9E70023BD
:1012E0002AF8153006F120029D4294BF20212E21BC
:1012F00001330B2B02F8011BF6D144F0200486F8D1
:101300002B403046FFF7F4FC96F82B30002840F0D5
:101310009B805A0782D4B379DB0640F1A980019BF8
:1013200003F13C013369C3F308031944019B587965
:10133000FEF78EFFB0603368CDF81490D3F810A09C
:10134000002505A8FEF774FF471C1DD0B0F5803FAF
:1013500024BF030C2AF8153083B228BF01351F2B98
:101360007FF669AF2F2B3FF466AF5C2B3FF463AF82
:101370007F2B3FF656AF5F49184611F8012F002A20
:101380003FF44FAF9042F8D1062047E733F8022DE3
:10139000202A02D02E2A7FF465AF013D5FE701339A
:1013A00068E7D84568D2AA4211D1BBF10B0F06D12C
:1013B00065E0AA4203D044F00304E4B264D8BF005D
:1013C000FFB22A464FF00B0B4FF008087EE77F284C
:1013D00038D944F00203DBB240F2B5110392029314
:1013E00054F07CF910F0800F029B039A10D000F0AB
:1013F0007F004149085C30B1404C14F8011F0029BE
:1014000067D08142F9D143F00303DBB25F2011E0E2
:10141000FF28F0D90BF1FF31884504D344F00304D1
:10142000E4B2D84652E706EB0801040A81F82040EE
:1014300008F1010806EB08011C4681F8200008F1BC
:10144000010843E72346D7E704287FF4E7AE13F00B
:10145000200F03F0040307D0002B3FF46CAF802370
:1014600086F82B300020D9E6002B08BF0520D5E6F2
:101470000520D3E6D84598D3BBF10B0F99D144F0A2
:101480000304E4B24FF00B0B96F82030E52B04BFB9
:10149000052386F82030BBF1080F04BFBF00FFB260
:1014A00007F00C030C2B03D007F00303032B02D12E
:1014B00044F00204E4B2A5073FF521AFF80744BFAA
:1014C00044F01004E4B2790744BF44F00804E4B2E5
:1014D00015E7A0F1410189B2192901D847F00207A7
:1014E000A0F1610189B219299EBF203847F0010798
:1014F00080B29FE76BF0060872EF060874F00608EA
:1015000000214171FEF77EBF2DE9F04705468CB002
:1015100091461F460C46002900F0BB8003F03F06B1
:101520003146FEF76FFF002840F0B5800DF130081E
:10153000494648F8305D4046FFF74AFE024620B96A
:101540009DF92B30002BB8BF062217F01C0F6DD071
:101550005AB1042A03D14046FFF776FC024646F012
:10156000080652B1002323605CE09DF8063013F0BA
:10157000110F65D1780700F19080310732D5DDF881
:101580001CA0A946514619F8050FFEF761FE074653
:1015900053F072FA01460AF10E00FEF705FE079BB2
:1015A0002022DA72079900224846FEF75FFE079B69
:1015B00000221A775A779A77DA770123EB718FB185
:1015C00039464046D5F83890FFF7F4F9024600282E
:1015D000C8D149462846FEF7C2FE013F6F61024668
:1015E0000028BFD1AB6B079F236267626879310720
:1015F000394648BF46F04006FEF72AFE0146A06085
:1016000007F11C00FEF7C8FD6B89A380B2064FF0FE
:1016100000030746E060256026746374E36163613C
:1016200010D4002210460CB0BDE8F087002A99D1F2
:101630009DF80630DA0632D4BF07D3D5D807D1D506
:1016400007228FE70028ECD0EE8960617602BE4267
:1016500001D300220BE02068FFF79CF80128014627
:1016600015D9431C5A425A41BF1B002AEFD0A16131
:10167000002A7FF477AFC7F30803002BD1D02846A8
:10168000FEF79AFD68B100EB5720E061CAE702223D
:10169000EAE70922C6E7024664E7082262E7042275
:1016A00060E702225EE72DE9F04F994685B00023FE
:1016B0008846C9F8003003A904461546FEF796FD92
:1016C0000646E0B9667CD6B9237CDA0779D5E368AB
:1016D0006769DF1BAF4228BF2F4687B16269C2F33B
:1016E0000803002B54D1039BDB89013B13EA522AE8
:1016F00013D142B9A06801280AD802266674304680
:1017000005B0BDE8F08FA1692068FFF743F8F2E764
:10171000431C01D10126F1E7A061DDF80CB0A169FD
:101720005846FEF749FD0028E7D00AEB00037D0A82
:1017300001932BD0BBF80E20DBF800000AEB05016B
:10174000914288BFA2EB0A052B46019A414601F05F
:101750004DF80028DED10399CB795BB1886B019BF2
:10176000C01A854206D94FF400723C3108EB402084
:1017700042F010FA6D02D9F800302B44C9F800305D
:1017800063697F1BA8441D446561A6E7019BE36173
:101790006569E1690398C5F30805C5F50075BD42A3
:1017A00028BF3D46FEF7DBFD0028B3D103996369EE
:1017B0003C31C3F308032A461944404642F0EAF993
:1017C000D9E707269BE72DE9F04F9B4685B000231C
:1017D0008846CBF8003003A904461746FEF706FDFD
:1017E000064610BB667C06BB237C9A0740F1A780A7
:1017F0006369FB4200D3DF439FB16369C3F308020F
:10180000002A7FD1039AD289013A12EA5322019227
:101810001ED173B9A06870B901462046FFF756F88B
:1018200048B9237C43F040032374304605B0BDE83B
:10183000F08FA169F1E7012802D102266674F4E76E
:10184000431C01D10126F9E7A368A06103B9A06098
:101850000398E369826B9A4203D1FEF713FD0028D7
:10186000F0D1DDF80CA0A1695046FEF7A5FC0028D8
:10187000E3D0019B7D0A03EB000935D0019ABAF849
:101880000E30DAF800002A449A4284BF019A9D1A69
:101890002B464A46414600F0B8FF0028D2D1DDF879
:1018A0000CA0DAF83810A1EB09018D420BD9019098
:1018B0004FF4007208EB41210AF13C0042F06AF952
:1018C000019B8AF807306D02DBF800302B44CBF81F
:1018D000003063697F1BA8441D44E3686561AB4227
:1018E0002CBFE360E56087E76269E3689A4207D34B
:1018F0005046FEF7C7FC0028A4D1039BC3F83890DC
:10190000C4F81C906569E1690398C5F30805C5F53D
:101910000075BD4228BF3D46FEF721FD002891D14C
:10192000039863693C30C3F308032A4618444146D0
:1019300042F030F9039B4FF00102DA71C4E7072649
:1019400073E7F7B501A90446FEF750FC054660BBF6
:10195000237C5B0629D553F08FF8216A074601984E
:10196000FEF7FDFC054600BB666AF37A43F02003F0
:10197000F3722068A26831460530FEF777FCE16813
:1019800006F11C00FEF710FC394606F11600FEF7C2
:101990000BFC0198B5740123F574C371FEF794FC38
:1019A000237C23F0400305462374284603B0F0BD92
:1019B00013B50446FFF7C5FF28B901A92046FEF775
:1019C00015FC00B9206002B010BD70B50E468CB099
:1019D00000210546FEF716FD044668B90CA83146FD
:1019E00040F8305DFFF7F4FB044690B99DF92B30C9
:1019F000002B04DA029BEB6120460CB070BD9DF811
:101A00000630DB0609D507996879FEF721FCE86105
:101A1000F2E7042808BF0524EEE70524ECE72DE9EA
:101A2000F0470C460021D2B0217081469046FEF767
:101A3000E9FC0746C0B9D9F81C30CDF800900293F4
:101A40004646DDF808A0BAF1000F13D1464502D191
:101A5000013E2F23A355A319361B13F8012B04F8BD
:101A6000012BA2194245F8D300233846237052B007
:101A7000BDE8F08720216846FEF7E6FE002848D141
:101A800006994846FEF76BFC054600283FD10799AA
:101A900099F80500FEF7DCFB294602906846FEF740
:101AA000D3FEB0BB00216846FFF75EF80546A0BB39
:101AB000079999F80500FEF7CBFB824514D10CA9D4
:101AC0006846FFF7DFFA29460CAB0B449A7D4B1CA6
:101AD000AAB99E421FD3721A0B4622448BB9C9433E
:101AE0000E442F23A355ACE729466846FEF7C1FFF5
:101AF0000028D7D00746042F08BF0227B4E71946AD
:101B0000E2E7013B0CA81844807DD054E6E7074685
:101B1000AAE70746A8E71127A6E70746EBE7F7B5C8
:101B20000D4601A90446FEF761FB064600284FD189
:101B3000667C002E4CD1E368AB4204D2227C12F0CA
:101B4000020F08BF1D460022636962619DB92846E5
:101B500009E00020E36865699D4281BF237CE56060
:101B600043F040032374C5F308058DB3E369834252
:101B70002ED0E0612CE0019AD7897F02F3B1013BBE
:101B80006A1EB3FBF7F1B2FBF7F28A4216D37A4230
:101B90001340A1696361ED1A0029DAD0BD4221D852
:101BA00063692B446361C5F30803002BD1D001980E
:101BB000FEF702FB50B100EB5520CBE7A16879B9E5
:101BC0002046FEF783FE0128014604D102266674F2
:101BD000304603B0F0BD013001D10126F7E7A16026
:101BE000A161D9E763693B446361237C9A07A5EB54
:101BF000070506D52046FEF769FE014628B90546C9
:101C0000CEE72068FEF7C6FD01464B1CE5D0012952
:101C1000DCD9019B1B6A9942D8D2A161BEE770B59D
:101C2000054616460C4621B30021FEF7EBFB68B9CA
:101C3000256031462046FFF7CBFAE0B994F92B3006
:101C4000002B0BDBA379DB0603D4052000232360E4
:101C500070BD6879E169FEF7FBFAA0606B89A3802B
:101C600000212046FEF7F0FD0428EED00028EDD13B
:101C700070BD092070BD0428E7D0E7E713B501A9BE
:101C80000446FEF7B3FA00B9206002B010BD73B588
:101C90000D4601A90446FEF7A9FA20B901462046DF
:101CA0001DB9FEF7D1FD02B070BDFEF75DFF10F06B
:101CB000FB06F8D129462046FFF7E4F931462046D5
:101CC000FEF7D7FE042808BF0020ECE770B50E46EB
:101CD0008CB0002104461546FEF794FB00940446A0
:101CE00070B931466846FFF773FA044640B99DF96A
:101CF0002B30002B07DB1DB129466846FFF7C2F9E0
:101D000020460CB070BD0624FAE72DE9F84F0F46C7
:101D100000210446FEF776FB064638B9D4F8209039
:101D2000A369A9F10202934203D83B603046BDE8A3
:101D3000F88F6379012B19D1022580462946204668
:101D4000FEF728FD431C3DD001283DD008B908F11D
:101D50000108236A01359D42F0D3C7F80080237A39
:101D6000C4F8188043F001032372DFE7E16A0546F7
:101D7000804604F13C0A35B9204601F1010BFEF71B
:101D8000EEFA18BB59466379022B10D10AEB050312
:101D90005A781AF8053053EA022308BF08F10108FF
:101DA0000235B9F10109C5F30805E4D1D5E70AEB1D
:101DB0000500FEF7F1F930F0704308BF08F10108A3
:101DC0000435EEE70126C8E70226C6E70646C4E763
:101DD0002DE9F0410F4698B002210546FEF712FBAF
:101DE0000446B0B918AE394646F8605D3046FFF794
:101DF000EFF9044668B99DF82B309A0601D41B060A
:101E000001D5062405E09DF8068018F0010F0DD0DD
:101E10000724204618B0BDE8F08102463946304616
:101E2000FEF7C8FD04460028F3D124E0079968793D
:101E3000FEF70EFA18F0100F074614D0EB699F4218
:101E4000E6D021460CA80C950E97FEF7FDFC044643
:101E50000028DED101460CA8FEF786FE04460028C5
:101E6000D6D00428D5D13046FEF71AFF0446002804
:101E7000CFD1002FD1D12846FEF726FA0446C8E775
:101E80002DE9F04F0E4691B002210546FEF7BAFA51
:101E90000446002872D110AF314647F8305D38460D
:101EA000FFF796F90446002876D0042866D19DF8FD
:101EB0003B1011F0200171D10DF1400848F8405D50
:101EC0004046FEF703FD064600285DD0012E59D09E
:101ED000731C5C425C4152F0CFFD8246002C55D110
:101EE00031462846FEF79CFD044600284ED14FF0AF
:101EF0002033EB632B64C5F843302E2385F83C3048
:101F0000102385F8473005F13C04514605F1520095
:101F100005F10509FEF748F9324621464846FEF725
:101F2000A5F905F15C0321461A4651F8040B42F865
:101F3000040B9942F9D12E2385F85D30069A484664
:101F40004FF0010BFEF792F985F807B03846FEF71F
:101F50007BFF0446D0B90B9851461630FEF724F9A2
:101F600032460B994846FEF781F90B9B1022DA7234
:101F7000284685F807B0FEF7A7F90446204611B0B9
:101F8000BDE8F08F0224A6E70724A4E7002231462B
:101F90004046FEF70FFDF1E70824EFE70624EDE7E2
:101FA0002DE9F0410C46A0B0022106469046FEF70E
:101FB00029FA002870D120AF214647F8606D3846D5
:101FC000FFF706F9002867D19DF84B3013F0A00FFA
:101FD0006FD10F9B6C4603F12005186859682246A3
:101FE00003C20833AB421446F7D13D460FCD14ACC3
:101FF0000FC40FCD0FC495E80F0084E80F004146D1
:1020000014A8FFF7E5F8002849D0042844D114A803
:10201000FEF71AFF00283FD11B990DF10D0301F1C6
:102020000D020DF11D0053F8044B42F8044B83429E
:10203000F9D1188810809B7893709DF80B30DA06E0
:1020400058BF43F020030124CB72F471CB7ADB0636
:102050001BD5169B0A9A9A4217D07079FEF7F8F8AA
:1020600001463046FEF7A8F8014620B33046FEF799
:1020700076F988B996F85D302E2B06D1169A06F1BE
:102080005C01701DFEF7F2F8F4713846FEF708FEA9
:1020900010B93046FEF718F920B0BDE8F0810A9B70
:1020A000169A9A4203D10C9B189A9A42AFD00820F4
:1020B000F2E70620F0E70220EEE70000F0B595B069
:1020C000074601910221FEF79DF90546002833D10C
:1020D00002AE4FF02033029304467360C6F8073017
:1020E000019B1B781F2B20D89DF80830E52B22D0B0
:1020F0001CB1631EF25C202A30D0002108A808978A
:102100000A91FEF7A1FB0546B0B9012108A8FEF728
:102110002BFD70BB0F9A1CB3334603CB106051608C
:1021200019889B78937211811CE001A8FEF780F852
:10213000B0F5803F03D30625284615B0F0BD53F017
:1021400001FB40F2B51153F0C9FA0028F3D01D4A43
:1021500012F8013F83B39842FAD1ECE71C46C7E777
:10216000E52313700123FB713846FEF7ADF80546F1
:10217000E2E70428FBD1002CDED0012108A8FEF7FD
:10218000D1FC05460028D7D1202201460F9841F006
:1021900043FD0F9B0822DA720F9ABDE7092CCAD8BB
:1021A00014AB2344020A03F8482C013414AB234433
:1021B000013403F8480C93E7FF28EFD80A2CF5D92F
:1021C000B9E700BFFEEF06082DE9F04FD0F8008018
:1021D0008FB01C4600234371039103790293154687
:1021E00005210DF12F02404600F024FB9DF82F3011
:1021F000DF0700F1E4825E0700F1E3820CAA03210D
:10220000404600F017FB30B90C9A531EB3F5004F4F
:1022100001D21A4201D001230C9345B1894BA5F597
:1022200000729A4203D913200FB0BDE8F08F6A1EE6
:102230002A40F8D1002C00F0C682189B5B0A059357
:1022400000F0C182029B002B00F098800123214600
:10225000404600F0CBFA08B10120E5E794F8FF21F1
:1022600094F8FE3143EA02234AF65522934201D004
:102270000E20D9E7029B04EB031101F5D7710B790E
:10228000002BF5D001F10800FDF786FF834601F130
:102290000C00FDF781FF0D90DDF83490B9F1150FBA
:1022A000E6D96A0A802ABED8039B13F0020C06D036
:1022B00003F00703022B79D0039BD80776D5039B45
:1022C000D907B0D502274FEA193306934FEA59438D
:1022D00008930C9B591E5B42099107934FF6F57EBC
:1022E000032F69D1002A65D15749012631F8023FF1
:1022F00013B1089D9D425BD2B9FBF6F353499D0093
:10230000A3F57F43F63B05F207258B424FEA55259F
:10231000AED8002301934FF0200A0BEB0A03009381
:10232000019B0798E918009B1944099B032F0B4454
:1023300003EA000308BF0098A3EB010301BFC01824
:102340009A440346009318BFED18CBEB06131944CB
:1023500089458DD3A9EB0A0301995B1B032FA3EBDE
:102360000103B3FBF6F304934DD1734579D8002AEA
:102370007FF47EAF76083FF47BAF2CE20DAA0121FB
:10238000404600F057FA00287FF466AF039B13F035
:10239000080F0D9B0CBF4FF03F0B4FF0000B9B4500
:1023A0003FF666AFA3EB0B030D9375E703278AE7B0
:1023B00076009BE716469FE71ABB2549012631F8B0
:1023C000023F13B1069D9D4219D240F6F573B9FB49
:1023D000F6F59D429BBF05EB4505013502356D08BD
:1023E0008CBF6D00033505F2FF154FF020038CBF45
:1023F000022701276D0A01934FF0010A8DE776004D
:10240000DDE71646E1E7022F24D1049B73450BD983
:10241000002A40F0DA817600402E40F2DC81BCF1E7
:10242000000F40F0D68108E0049B40F6F5718B4226
:1024300017D8002A7FF41CAF7600802E3FF618AF25
:10244000C9E100BF00FEFF0028F00608FFFFFE0FF5
:102450001AF00608049A40F6F5739A423FF608AF60
:1024600001274FF400720021204641F0D5FBDB4BE1
:1024700084F80EA01A6822605A6862601A899B7AF2
:102480002281032F4FF00202A3724FF00003E37288
:102490002273CAF3072A4FF00102637418BF0223A4
:1024A000B9F5803F667384F80FA02274A37480F09E
:1024B0001D8184F81390C9F3072984F81490F82338
:1024C00063753F2323764FF00009FF2384F81990AA
:1024D000A37684F81B90594604F11C00FDF764FEB6
:1024E000032F40F0098152F0C7FA014604F143007E
:1024F000FDF75AFE294604F12400FDF755FE02239C
:1025000084F82C30012384F83030062384F83230EC
:10251000802384F84030292384F84230B04B84F87B
:102520002D9084F82E9084F82F9084F8319084F8C0
:10253000339004F1470203F1100153F8040B42F801
:10254000040B8B42F9D119889B7893704FF0AA0A3B
:102550004FF055031180404684F8FE3184F8FFA106
:1025600001235A46214600F050F9814600287FF4A5
:1025700073AE032F3FD101230BF1060221464046E3
:1025800000F043F94FF400724946204641F044FB05
:102590005223237063706123A37084F8E731049B96
:1025A00041227221E27084F8E41184F8E51184F884
:1025B000E621591E04F5F470FDF7F6FD022384F8B8
:1025C000EC314FF0550384F8FE310BF10702012383
:1025D000214684F8ED9184F8EE9184F8EF9184F827
:1025E000FFA1404600F011F901230BEB0302214645
:1025F000404600F00AF9189B23F4FF7222F0010212
:102600000021204641F008FB032F40F09280F82380
:102610002370FF236370A370E37023716371A37150
:10262000E37123726372A3720F23E372059B009A16
:10263000AB4228BF2B4621464046994600F0E5F8BC
:10264000014600287FF408AE4FF40072204641F0A6
:10265000E3FA009BB5EB09054B440093E6D1019BDF
:10266000032F08BF33460193019B059A934228BF6D
:1026700013462146009A40461D4600F0C6F8002841
:102680007FF4EAAD009B2B440093019B5B1B0193FD
:10269000EAD1032F56D00D9BB3F5803F54D2022FC1
:1026A00014BF01250425029B002B4FD000220123DB
:1026B0002146404600F09AF8024600287FF4CCAD4F
:1026C000029B04EB031383F8B251012321464046D9
:1026D00000F09BF800287FF4BFAD00221146404671
:1026E00000F0A8F8003018BF01209DE5494604F12C
:1026F0002000FDF759FDE2E652F0BEF9014604F173
:102700002700FDF751FDC5F30723E375802384F807
:102710002430292384F82630324BA57504F12B028E
:1027200003F1100153F8040B42F8040B8B42F9D16A
:1027300009E7012F2C49204618BF6FF00701FDF76C
:1027400033FD73E70C25AEE70625ACE7039B1B07BB
:10275000C3D44FF400720299204641F05DFA55232C
:1027600084F8FE310D9A84F8C251AA2384F8FF310F
:102770009DF8083084F8BE3184F8C1315A4443F6DC
:10278000C163B2FBF3F2FE2384F8C331930843F034
:102790003F03012684F8C43184F8C521594604F565
:1027A000E37084F8BF6184F8C061FDF7FDFC0D990A
:1027B00004F5E570FDF7F8FC3346029A86E703203E
:1027C00032E50A2030E511202EE5BCF1000F3FF480
:1027D0004FAD16460327324682E500BF38F00608A3
:1027E00044F0060858F00608F8FFFF0010B50C4644
:1027F00011461A4638B1234604303DF061F80030E6
:1028000018BF012010BD042010BD10B50C461146A4
:102810001A4650B1234604303DF0A0F810F11E0FC7
:1028200005D0003018BF012010BD042010BD0220CB
:1028300010BD000070B50D4614460646002845D070
:1028400001F00703224AD15C69B3002204303DF055
:10285000DFF8062D3AD8DFE805F008050A16391921
:10286000190006202BF034F92060002070BD0628E6
:1028700005D14FF4007323802388B360F5E72BF074
:1028800027F92080F8E701232360EEE7062801D02E
:10289000430806D1336A002B0CBF042300232370A6
:1028A000E3E70123FBE7062D10D801A353F825F039
:1028B0006B28000863280008732800088728000890
:1028C000CD2800089528000895280008042070BD30
:1028D0004C440608086833F0CABC000037B51C46F3
:1028E000043001AB1546FEF76EFF30B1054B1B5CA3
:1028F00023604FF0FF3003B030BD01988542FAD01D
:102900001C23F5E78C44060813B51C46043001ABC4
:10291000FEF7C9FE30B1044B1B5C23604FF0FF3063
:1029200002B010BD0198FBE78C4406082DE9F8437E
:102930008146506890460F4631F024F8254A013808
:10294000002410F8013FD3B92C201DF0B9FB064636
:10295000054646F8047BD8F8000031F013F8E3B2DE
:102960000246314609F14400FEF7CEFD074640B36A
:1029700028461DF0BFFB184BD85D2AF047FA722B92
:1029800013D008D8612B19D0622B0CD02B2BD8D1A7
:1029900044F00304D5E7772B0AD0782B0BD0742BA7
:1029A00008BF1746CDE70D4FCBE744F00104C8E759
:1029B00044F00A04C5E744F00604C2E744F01204F8
:1029C000BFE7E30603D529693046FFF7A8F8284694
:1029D000BDE8F883DC4406088C440608A0440608D9
:1029E00030B587B0054603AC084611461A46064B7B
:1029F0000093019403232AF02FFD2246294600204C
:102A0000FFF794FF07B030BD744406081FB50623D6
:102A1000019102920349039301AAFFF787FF05B0D2
:102A20005DF804FBDC44060870B5054608460C4614
:102A30002AF0C2FF2346024602492846BDE87040FC
:102A400000F0A6BF68440608022970B50446154682
:102A50001E4613D15368012B0AD0022B0CD01BB990
:102A60001168201DFFF75BF8A3692B60002070BD83
:102A700081692B681944F4E70169FAE701290AD151
:102A80000430FEF75EFF0028F0D0084B1B5C33607B
:102A90004FF0FF3070BD042906D14368002BE5D00C
:102AA0000430FEF785FFEEE71623F0E78C440608B6
:102AB0002DE9F74F06299DF8305010D8012905D986
:102AC0003F23037001300023037001E00029FAD195
:102AD000012994BF0020012003B0BDE8F08F10EE63
:102AE000104A002C25DAB4EE400AF1EE10FA20D696
:102AF0002D25441C0570B1EE400A9FEDC57A01906A
:102B0000F0EEC07AF4EE477A02F0200CF1EE10FA03
:102B10005FFA8CF513DD85F04903237085F04E03D1
:102B200085F046056370E11CA57000230B70081A40
:102B3000D2E715B1441C0570DFE70446DDE7B4EECB
:102B4000400AF1EE10FA08D745F04E0385F0410532
:102B500023706570E11CA370E7E7002B42F02002B0
:102B6000B8BF0623672A02D1002B08BF0123251A0C
:102B70000139491B10EE105A002D4BD1662A3BD16A
:102B80005D1CA942D8BF8B1E002766215E1C0091E8
:102B9000BE463D4623EAE3730099652940F02E8145
:102BA0005E1C4FF000084FF02E0AB2EE047A464544
:102BB00040F38380FDEEC07A04F1010917EE901A0C
:102BC0000029ABBF17EE901A302101F1300B2170B4
:102BD000A8BF84F800B0F0454C4604D11BB189F879
:102BE00000A009F10104F8EEE77A08F1010830EEDF
:102BF000670A20EE070ADAE75D1DA942D8BF8B1FDE
:102C0000652A00924FF0000640F0E7802B27B64679
:102C10003546BFE7B5F17E5F80F08F80DFED7D7ACE
:102C2000DFF8F8E1DFF8F891B4EEE70AF1EE10FA18
:102C30004FF00006ACBF4FF031084FF030082027AE
:102C40003546BEEC017AB4EEC07AF1EE10FAC4BF9C
:102C500009EB060A9AED007A06F10406C4BFED19E5
:102C600020EE070A182E4FEA6707EAD110EE106A25
:102C7000B6F17E5F45D2B4EEE70AF1EE10FA3BDB27
:102C8000002D14BF2D272B27B7EE000A662A03D08C
:102C9000672A48D1042D46DC672A04BF05F1FF36B8
:102CA0009B195E1CB142D8BF8B1E84F8008053BBB9
:102CB000662101341E4600911F46662A40F0B2800C
:102CC000B54240F3058197B10A2195FBF1F393FBDF
:102CD000F1F201FB135501FB12324CF0450C30327E
:102CE000303584F800C06770A270E57004340023AA
:102CF0002370019BE01AEFE6F2EE047A20EE270A39
:102D000001352D27C2E72E2161701E460234302185
:102D1000013D64D01EB937464FF0FF3E44E004F851
:102D2000011B013EF4E74E1FB34263DB672A58D014
:102D30008B1F00920026B6462CE70026DFF8E0E065
:102D4000DFF8D88020273546FEEC017AF4EEC07A11
:102D5000F1EE10FA9CBF08EB0609D9ED007A06F1F6
:102D600004069CBFED1920EE270A182E4FEA6707CC
:102D7000EAD1FDEEC07A17EE906A092EC2BFDFEDF0
:102D8000267A013520EE270A662A10D18D4210DA04
:102D90005E190136B14203DC491B8B1E00D54B1E68
:102DA000EE180136AE46002766210091F2E6652A4C
:102DB00008D14E1FB34200DB8B1F00262B27B646DF
:102DC0006521F2E7672A0ED11E1DB142D8BF4B1F05
:102DD0009D420CDA691C5B1AE2E7374617E72F467B
:102DE0009AE73346A5E7009200262B27A3E7672141
:102DF0000091F9E700260092B646CDE600996729D2
:102E00007FF4CFAE13B901263346CAE61E46C8E6A4
:102E1000FFFF7F7FF8FF7F3FCDCCCC3D38E9050831
:102E200050E90508F1EE047AB4EEE70AF1EE10FA83
:102E300025DB661E4FF0300896F800E0BEF12E0F3D
:102E40003BD0AEF13009B9F1090F29D9701C0678D1
:102E5000302E14D190F801E0BEF12E0F31D100993F
:102E600066292ED02D2F80F800E0467027D1013D35
:102E700008BF2B272146884225D331210170672ABC
:102E80007FF421AF002B3FF41EAF23461C46013BCD
:102E900014F8012C302AF9D02E2A08BF1C4612E75C
:102EA000BEF1390F05D00EF1010E86F800E0304674
:102EB000CDE7864286F80080C9D0013EBCE70135E7
:102EC000D8E70134D6E711F8016C01F80169D2E7BF
:102ED000F1EE047AB4EEE70AF1EE10FAA9DAF2E6BE
:102EE00008B5044631B1054B03604A6C09680023FC
:102EF0002CF058FE20461DF0AFF800BFA8F90508D9
:102F00002DE9FF471F4601924618002A34D1054695
:102F1000B5422C463CD220781EF01EFA0135804680
:102F20000028F5D123782B2B2CD12C46311B2046A1
:102F300001AA28F0C0FA0444A1460025B1454B4639
:102F400029D3B8F1000F00D06D426D0045F00105A6
:102F5000A34209D01C46B442234645D21878013416
:102F60001EF0FAF90028F6D12249019A22482CF0E5
:102F7000DDFD3946FFF7B4FF023A222AC7D91F48C0
:102F800029F04EFD2D2B04BF2C464FF00108CDE754
:102F90004FF00008CAE719F8012BA2F1300ABAF184
:102FA000090F09D95F2AC9D042F02002A2F16101BC
:102FB0001929C6D8A2F1570A01998A45C1D22846D3
:102FC00037F070FA28B9019B03FB05A595EA450384
:102FD000B4D504A8019B40F8044D4246311B2DF0A6
:102FE00093FF039B0546B3E7BED1284604B0BDE876
:102FF000F08700BF83E9050898FA05086EE905081F
:103000002DE9F04F2DED028B83B09146DDF838802D
:10301000019346180546B5422C4680F08180207801
:103020001EF09AF9013507460028F4D123782B2B9E
:103030000AD12C46BA46B5420DD300222846114685
:103040001346DFED928A7EE02D2B03D12C464FF004
:10305000010AF0E7BA46237843F02003692B32D106
:10306000A31C9E4240F20A81637843F020036E2B3A
:1030700040F00481A37843F02003662B40F0FE80EB
:10308000E31D9E4204F103051AD9E37843F02003BF
:10309000692B15D1237943F020036E2B10D163796E
:1030A00043F02003692B0BD1A37943F02003742B49
:1030B00006D1E37943F02003792B01D104F108050F
:1030C0009FED738A14E06E2B2CD1A31C9E4240F21C
:1030D000D580637843F02003612B40F0CF80A37844
:1030E00043F020036E2B40F0C9809FED6A8AE51CF7
:1030F000BAF1000F01D0B1EE488AAC4209D0B54216
:103100002B4680F09D80187801351EF025F90028A7
:10311000F5D1614961482CF07FFC4146FFF7E0FEA4
:103120004FF0000A0021DFED598A9FED5D7A2746B6
:103130000B460A460846F2EE046A4FF00A0BB74205
:1031400005D320463C4625460446002751E097F823
:1031500000E0AEF1300CBCF1090F07F101051CD8FD
:10316000022806D14F4FBB4201DC0BFB03C32F46A5
:10317000E5E7F4EEC78AF1EE10FA0BD507EE90CA38
:10318000F8EEE77A0128E8EEA67AF0EE678A2DD10C
:103190000139ECE728B90131E9E720B9BEF12E0F7A
:1031A00003D10120E3E7022813D04EF0200CBCF13C
:1031B000650F0ED1AE4203D978782B2804D1BD1CFF
:1031C000B542A6D00220D2E72D28FBD1BD1C01229A
:1031D000F6E7B9F1000F04D04EF0200CBCF16A0FF5
:1031E00006D0BEF15F0FC2D03D46AEE70020BEE77D
:1031F0004F4602B15B420B4413F1250FBCBF253390
:10320000DFED297A03F10902B8BF68EEA78A082A20
:103210000BD85B4200EE903AB2EE040AF8EEE00AF8
:103220003DF024FD88EE808A62E707EE903AB2EE28
:10323000040AF8EEE70A3DF019FD28EE808A57E708
:103240007FF467AF57B19FED110AF0EE480A03B063
:10325000BDEC028BBDE8F04F2BF078BC019B23B195
:10326000DFED0A0AB0EE480AF1E7B0EE480A03B013
:10327000BDEC028BBDE8F04F2CF0A2BDBAF1000FFF
:103280003FF447AF25469FED018A34E70000000078
:103290000000807F0000C07F68E9050898FA0508F3
:1032A000EC78AD6064666606EA1C080208461146C2
:1032B00041F086BB70B5054608460E4640F0E2FC7C
:1032C000044620B102466B6828683146984720467C
:1032D00070BD00002DE9F74F01919DF83010914627
:1032E0000D9A11F0DF0F0646A2EB09023DD03029FE
:1032F0000CA9244F0EBF4FF010080F464FF00108E5
:1033000013F0800435D0022492FBF4F4151B002C3A
:1033100036DDA246D045C346A8BFD34673683068A1
:103320005A463946AAEB0B0A9847BAF1000FF1DC6E
:10333000B9F1000F05D07368019930684A46984783
:103340004C44002D0DDD2C44A845C146A8BFA9461C
:10335000736830684A463946A5EB09059847002D41
:10336000F2DC204603B0BDE8F08F074F4FF01008A5
:10337000C6E713F0010501D11446C8E71546D7E7A3
:103380000024D5E7B0D905089FD905082DE9F043F9
:1033900089B00746119D9DF84880139E42BB0022CC
:1033A0008DF80F2051BB08AC302304F8013D15F017
:1033B00040099DF80F303FD0002B46D001220192EA
:1033C000CDF800802B460DF10F013846FFF782FF44
:1033D000013E814608AA0196CDF800802B46121BBB
:1033E00021463846FFF776FF484409B0BDE8F08330
:1033F000002919DA2D228DF80F204942109A08ACC5
:10340000A2F10A0E0DF1100CB1FBF3F003FB101248
:10341000092ACCBF7244303204F8012D64450146BC
:10342000C5D00028F0D1C2E7A80701D52B22B7E705
:103430006A07B4D52022B3E7002BCBD004AA94426C
:10344000C8D904F8013C013CC4E79946C2E7000032
:103450002DE9F04F91B011F0010F82468846914658
:103460001A9D9DF86CB01C9F1D9E0ED111F0030F8C
:1034700003D10A6882498A4207D0404605932AF060
:1034800027FB059B400040F0010815F0810206D1A2
:10349000BBF1300F03D1B742B8BF3746164640469E
:1034A00005932DF047FC002808A9059B17DBAC0706
:1034B00011D52B228DF820200DF12104EA061DD50F
:1034C000B9F1020F0DD12246302002F8020B581C30
:1034D0006070144612E0680701D52022EAE70C4626
:1034E000ECE7B9F1080F3ED1A8054FF03002227089
:1034F00045BF03F10E02627001340234611A0022EA
:1035000015F0200F05910CBF11462C21012E0CA89F
:10351000C8BF45F0400522700990DBB2102015F0BD
:1035200040040A900B928DF81F200391029324D03F
:103530000192CDF8009043460BAA0AA909A82DF0E4
:10354000D1FA03782D2B814671D10B9C8DF81F3059
:10355000013C012E00F101090B9400F38D804FF026
:103560000008444617E0B9F1100FC7D122463020B9
:1035700002F8020B03F11700AAE708AB0193CDF89C
:10358000009043460BAA0AA909A82DF0ABFA012E18
:10359000814647DCA04669061BD59DF81F3053B114
:1035A00001220023019200930DF11F015046FFF705
:1035B00091FE013F0444059B5BB10123019300236D
:1035C0000093059A08A95046FFF784FE059B044422
:1035D000FF1A012EC8BF37460197CDF800B02B4621
:1035E0000B9A49465046FFF775FE0444B8F1000FA8
:1035F0000AD0202300930023CDF804801A462149E5
:103600005046FFF767FE044409980CAB984201D07E
:103610001CF070FD204611B0BDE8F08F4FF000089F
:10362000444619E00B9CB442B8BF34460BE0012E6F
:1036300095DD0B9C9DF81F30B442B8BF344603B1F2
:103640000134059B1C44A742E8DD15F00108A7EBF7
:10365000040401D0A046002425F001054CB120232C
:103660000093002301941A4606495046FFF732FEA4
:1036700004464FF0300B8EE7B442B8BF3446DFE764
:1036800004000608069E06082DE9F04316468BB096
:10369000B20780469946129F3DD416F0040F0CBF26
:1036A0000023202300930A46139B202102A8FFF742
:1036B000FFF9F30504460DD5431C1F2B0AD80AAAAF
:1036C0001444252204F8202C0AAA1A44002102F8E6
:1036D000201C1C4616F040051FD09DF808302F2BEB
:1036E0004FF000031BD8012202A90192009340462B
:1036F000FFF7F0FD013F0546013C0DF1090101977F
:10370000CDF80090334622464046FFF7E3FD2844BB
:103710000BB0BDE8F0832B23C4E702A9EFE702A9B1
:103720001D46ECE72DE9F04F824689B0144600258E
:103730000E46334613F8012BD2B9B14208D2771A9C
:10374000DAF80430DAF800003A4698473D4431464A
:103750000B78002B00F01381013120224FF000097B
:103760000B780E46481C3BB998464FF0FF3345E0B6
:10377000252AE2D01E46DCE72D2B03D149F00109B2
:103780000146EDE72B2B02D149F00209F8E7202B87
:1037900002D149F00409F3E7212B02D149F00809CD
:1037A000EEE7302B1CD04FF000080A270E4611F828
:1037B000013BA3F13000092816D92E2BD5D17378FF
:1037C0002A2B16D000234FF00A0E0E4611F8010BDB
:1037D000A0F13007092F11D80EFB0303303BF4E7AB
:1037E00049F040091A46CBE707FB0838A8F1300832
:1037F000DCE72368023623EAE373043431786C296A
:1038000008BF01363778002F00F0B980642F00F030
:103810008D8029D8502F2ED00ED8A7F1450102292E
:1038200040F29480DAF80430DAF8000001223146E0
:1038300098470135A34651E0622F42D055D8582F02
:10384000F0D17B1C27F00F070F3F03F00603FFB2F8
:1038500004F1040BCDF80C800292CDF8049000978F
:10386000C3F1100300226CE0712F49D00ED8672FEE
:103870006CD9702FD6D16123009304F1040BCDF8DD
:103880000C800292CDF804901023EBE7752FD8D06E
:10389000782FD6D0732FC5D104F1040B246805937B
:1038A0002046049240F0EEF9059B5A1C049A02D07F
:1038B000984228BF18468DE804014B46024621462F
:1038C00008E0236804F1040B8DE804014BB12E4994
:1038D0004B4604225046FFF7FDFC0544711C5C4634
:1038E00026E74B4605222949F4E708A9236801F891
:1038F000043D04F1040B8DE804014B460122E9E785
:1039000007A92068059304921DF0EFFA059B049A1D
:103910000146581C04F1040B03D00798834238BFBA
:1039200007938DE804014B46079AD3E7612302927F
:10393000009304F1040BCDF80C80CDF804900A2319
:10394000012221685046FFF721FDC6E7073424F025
:103950000704D4E900010593049255F0B1F9049AE3
:10396000059B019300EE100A1346CDF800804A46ED
:103970003946504604F1080BFFF786FEADE72846AE
:1039800009B0BDE8F08F00BF94D9050899D90508A2
:103990000EB403B503AA52F8041B0192FFF7C2FE4E
:0C39A00002B05DF804EB03B070470000BB
:020000040802F0
:10000000034B1B685B685A690260586100207047A7
:100010008C230020034B1B685B685A6912685A6185
:10002000704700BF8C230020C46005614661876172
:10003000C0F81C80C0F82090C0F824A0C0F828B0F8
:10004000C0F82CD080ED0C8B80ED0E9B80ED10ABBA
:10005000C0F808E0FFF7D4BF08B5114B1B685A6819
:1000600053690BB92CF0A4FA19685860516118460D
:10007000C468056946698769D0F81C80D0F820906B
:10008000D0F824A0D0F828B0D0F82CD090ED0C8B6C
:1000900090ED0E9B90ED10ABD0F808E0012070477A
:1000A0008C23002010B50021044600F08BFA18B90B
:1000B00014B120460CF0A0FC10BD002100F082BA63
:1000C00010B50121044600F07DFA18B914B120469C
:1000D0000CF092FC10BDFFF7E5BF10B501220C46F5
:1000E00000F0C6FB18B914B120460CF085FC10BD19
:1000F00000F0BEBB00F046BB2DE9F0432A4C0025C2
:100100004FF00309D4F890720021013143189A0886
:1001100003F00303BA5C5B0042FA03F303F003034A
:10012000022BF2D0D4F89C3209018A0803EB0010AC
:1001300009B300EB820150F8043B1A0719D1D4F837
:100140009C22934215D39A1AD4F8A0624FEA921EC9
:10015000120902F00307B3424FEA470709D2D4F865
:1001600090C21CF80E8048FA07F303F00303012B3A
:1001700008D08142DFD1ADB1013D05F5AA7334F855
:100180001300BFE709FA07F747EA080705F5AA7859
:100190003F2D0CF80E709ABF013524F81820C4F8D2
:1001A000A432E6E7BDE8F083281C0020F8B521F072
:1001B0000F031C1A174A184DE400A2FB0424640A1A
:1001C0000119A3EB84172246C5F898120021C5F83F
:1001D000A032C5F89442C5F89002C5F89C7223F08D
:1001E0001BFDA2000732D2080021D5F8980223F0A7
:1001F00013FD0A4B1B685868012100234FF0FF32A2
:10020000C5F834330381C5F82C33A5F82813C5F895
:100210003023F8BDF32C23FA281C00208C23002067
:10022000034B1B685A68138901331381704700BF61
:100230008C230020034B1B685A681389013B1381F0
:10024000704700BF8C230020034B1B685B68188934
:10025000003018BF012070478C230020F8B51D4BDB
:100260001D4D1B6859680B89002201330B8105F174
:100270000804C5F82C23C5F8A42205F5F076032759
:1002800054F8043F1A0719D1D5F89C02834215D3BC
:10029000181AD5F8A0124FEA901E000900F00302C8
:1002A0008B424FEA420209D2D5F8901211F80EC0E3
:1002B0004CFA02F303F00303012B02D0A642DFD174
:1002C000F8BD07FA02F242EA0C0301F80E30FFF71C
:1002D00013FFF3E78C230020281C0020A1B32DE995
:1002E000F0411A4F0E46051F00244FF0030855F841
:1002F000043F1A0704F1010419D1D7F89C0298426F
:1003000015D8181AD7F8A0124FEA901E000900F06D
:10031000030299424FEA420209D9D7F8901211F824
:100320000EC04CFA02F303F00303012B03D0A642E4
:10033000DDD1BDE8F08108FA02F242EA0C0301F8CF
:100340000E30FFF7D9FEF2E7704700BF281C0020EF
:100350002DE9F04F524ED6F89402D6F8A43283B06D
:100360008000002513B3C6F8A45200284DD0002405
:1003700002E00134844215D2A208D6F8901204F0AB
:1003800003038A5C5B0042FA03F303F00303032BCD
:10039000EFD12046FFF7B0FED6F89402013480007A
:1003A0008442E9D3D6F8A432002BDCD168B39C4652
:1003B0001D464FF0030A4FF0020806E0032B63D0FE
:1003C000012B2ED0013585421FD2AF08D6F89022DE
:1003D00005F00304D15D640041FA04F303F0030364
:1003E000022B02EB070EE9D1BCF1000FEAD00AFAAA
:1003F00004F421EA04018EF80010D6F894020135C5
:10040000800085424FF0010CDFD3264B1B685A68F1
:1004100013890021013BC6F83413138103B0BDE8F2
:10042000F08F4FEAD50BD6F8982212F80BC005F0E2
:1004300007094CFA09F0C3075A44D8D52901D6F860
:100440009C024358084493B16A46B1210BF092FCD8
:10045000009A3AB10CF01CFD9DE803000CF0E8FC9A
:100460000CF02CFDD6F8982212F80BC05A44012348
:1004700003FA09F32CEA030C82F800C0D6F8903294
:1004800003EB070ED95DB2E708FA04F421EA040190
:10049000D155D6F894024FF0000C800092E700BFCF
:1004A000281C00208C230020054B06491B685A6835
:1004B0001389013313810023C1F8A432FFF748BF29
:1004C0008C230020281C00203D4BD3F89C12D3F82D
:1004D000A0222DE9F047D3F89462D3F89072521A13
:1004E000002302601D46B60043608360C360036161
:1004F000436183619C469E461C461A4699461946AE
:10050000984617F8093049000B4103F00303012B0B
:1005100030D027D3022B02D101354560013401329E
:10052000B2420ED04FEA920902F0030117F80930E7
:100530004FEA410A43FA0AF313F0030301D0012BF7
:10054000DFD1012C1AD0022C2BD081698C4288BFBC
:100550008461B2421BD0012B27D04FEA920902F0EE
:100560000301CEE70CF1010CC0F808C00EF1010E3A
:100570001C46D4E7013545601C46D0E701690131CE
:10058000016181698C4288BF8461B242E3D1C64572
:100590000ED9B242C0F80CE00AD0F0464FF0000E7F
:1005A000DBE7416901314161CFE7F045F6D2F0E781
:1005B0002D014FEA0C1345608360BDE8F08700BF52
:1005C000281C00200F302DE9F04706095ED06B4B48
:1005D0001B685B681B89002B58D1694DB5F828331F
:1005E000002B01F001040CBF4FF0010C4FF0000C88
:1005F00051D1D5F83413D5F89472B94239D2D5F81F
:1006000090E200230EEB01001AE001339E4254D920
:1006100012F00C0F1ED101339E4240F2A68012F060
:10062000300F1CD101339E4240F2A28012F0C00F65
:100630001AD101339E4240F29E800131B94218D254
:1006400010F8012B12F0030FDFD012F00C0F4FF057
:100650000003E0D012F0300F4FF00003E2D012F0B0
:10066000C00F4FF00003E4D00131B9424FF0000356
:10067000E6D3BCF1000F09D131F01CFED5F83413DC
:10068000D5F894728F424FF0010CB8D84FF00008A3
:100690004046BDE8F087D5F82C23D5F830339A4290
:1006A000A7D331F007FED5F83413D5F894728F42F2
:1006B00088BF4FF0010CA2D8E8E78900CA1A012BC5
:1006C00002F1010701F1010C08BF4FEA9C034FEA58
:1006D000970008BFC5F8343307F003034FEA430817
:1006E0001EF80090012303FA08F3023243EA0903DB
:1006F00091420EF8003028BF4FF0020810D3900846
:10070000D5F890E202F003031EF800905B0008FAAF
:1007100003F3013243EA090391420EF80030EED2AE
:10072000D5F89CA2D5F82C334FEA0719ACEB070299
:100730000AEB09081E44120140460021C5F82C634B
:1007400023F06AFA002CA3D00023D5F898124AF8B7
:100750000930FA080123885C07F0070703FA07F756
:1007600007438F544046BDE8F08789000131A5E773
:1007700089000231A2E7890003319FE78C23002022
:10078000281C00201D4B1B685B681B89A3BB98B30A
:10079000F0B41B4ED6F89C32D6F89852C01AC10954
:1007A00004096B5C04F007070122BA4023EA020344
:1007B0006B54D6F8342383099342D6F8900238BF9D
:1007C000C6F83433C15CA50804F0030303275B00BB
:1007D00007FA03F321EA030343550134D6F89002E4
:1007E000A50804F00303415D5A0041FA02F202F049
:1007F0000302022AEBD0F0BC704700BF8C2300201C
:10080000281C002010F00F031BD1184AD2F89C12AC
:10081000884216D310B4D2F8A042A04222D2401A85
:10082000D2F8904282090109A25C01F00300400065
:10083000024102F00302012A184604D05DF8044B7D
:1008400070470020704701300B189A0803F003032B
:10085000A25C5B0042FA03F303F00303022BF2D025
:100860000001EBE718465DF8044B7047281C002098
:100870002DE9F84F8A46002800F00981894B1B6852
:100880005B681B89002952D0002B51D1864DD5F8C9
:100890009C42D5F89412A0EB04094FEA19177E1C6C
:1008A00089000AF10F0CB1424FEA1C1C40F2F5809E
:1008B000D5F890B29E464FF00108B40806F0030345
:1008C0001BF804405B0044FA03F303F00303022B1C
:1008D00032D02BB90EF1010E0EEB08039C452DD83A
:1008E000C4454BD02ED3C644F44504467DD807EB0F
:1008F000080167448F4288BF4FF0020E0DD98A0865
:10090000D5F8900201F00303865C5B000EFA03F356
:10091000013133438F428354F1D1ACEB0802120111
:1009200004EB08100021264623F076F901E04BB3D2
:1009300000263046BDE8F88F08F101080136B142C3
:10094000BBD1CDE7BC44644647444FF0030EA10839
:10095000D5F8906204F00303725C5B000EFA03F3B7
:10096000013422EA0303BC427354F0D1D5F8343386
:100970004FEA9C029A4238BFC5F8342306463046F7
:10098000BDE8F88F484DD5F89C12D5F89862401A0A
:10099000C1090409735C04F007070122BA4023EA85
:1009A00002037354D5F83433D5F890628009984225
:1009B00038BFC5F83403315C04F00303A0080327F3
:1009C0005B0007FA03F321EA030333540134D5F83B
:1009D0009062A00804F00303315C5A0041FA02F26D
:1009E00002F00302022AEBD0A2E74FEAD911D5F8B0
:1009F0009832595C07F007073941002A98D001F076
:100A000001015046FFF7DEFD0646002890D04FEA70
:100A10000812214623F0BEF8224B1B685B681B8935
:100A2000002B86D1D5F89C02D5F898E2201AC1098E
:100A300007091EF8013007F007040122A24023EA4B
:100A400002030EF80130D5F8343384099C42D5F8FE
:100A5000900238BFC5F83443015D07F00303BC08BA
:100A60004FF0030E5B000EFA03F321EA0303035574
:100A70000137D5F89002BC0807F00303015D5A0066
:100A800041FA02F202F00302022AEBD051E70146DA
:100A90005046BDE8F84FFFF795BD9E464FF0010860
:100AA0001EE700BF8C230020281C002010B58AB050
:100AB00003A80B4CFFF708FD0599049B039A0091CE
:100AC00020460849E2F764FF06A80DC8099901907D
:100AD000009120460449E2F75BFF0AB010BD00BF59
:100AE0008CD90508E0900508049105082DE9F84F18
:100AF000564F5749D7F89C225648E2F749FFD7F896
:100B00009412890000F08880DFF880A1DFF88091DE
:100B1000DFF8408100251DE005F0030676004FEA6E
:100B2000950BD7F8903213F80B3043FA06F606F01F
:100B30000306022E6ED0032E6AD0012E43D02E2241
:100B400045494046E2F724FFD7F894120135890061
:100B5000A94261D9A806DFD18D426BD2D7F89002A5
:100B60004FEA950B05F0030610F80B307600334181
:100B70009A0721D12C4604E0825C42FA03F39B07DA
:100B800008D1013404F003038C424FEA94024FEA87
:100B90004303F1D1621B7F2A0ED992092F494046A7
:100BA000E2F7F6FED7F8943224F03F05B5EB830F59
:100BB00032D24FEA950B00260AEA05124946404612
:100BC000E2F7E6FEADE7D7F89C12254B2A018A58DA
:100BD0009A4229D0234B9A4228D0234B9A422FD0B5
:100BE000224B9A421ED0224B9A421BD0214B9A4252
:100BF0001ED0214B9A421BD0204B9A4222D0204B30
:100C00009A4221D01F4B9A4214BF68224D2297E787
:100C10006D2295E73D2293E71B490E48BDE8F84F4A
:100C2000E2F748BB53228BE7542289E74C2287E73F
:100C3000412285E705F0030676004FEA950BBBE7F6
:100C400044227DE746227BE7422279E7281C0020E8
:100C5000989005088CD90508DC900508B89005081F
:100C6000FC0F06086C0106084CF305085C0D06082D
:100C7000B40A06086CEF0508F4EE0508B0FB050899
:100C800040FC050828030608B4900508F0FF0F0093
:100C9000D4900508054B02681B6A59688A4203D341
:100CA000521A0260184670471B68F6E7281C00209D
:100CB000014441F20553884204D398B2002808BF8A
:100CC0000120704710F8012B03EB43135340F2E768
:100CD000034B044A1A620022C3F8E421704700BFA4
:100CE000281C0020F08006082DE9F84380460E46B7
:100CF000FFF7DEFF124B1C6A074614B92046BDE819
:100D0000F883D4F80C9000254D4501D12468F4E710
:100D1000236933F815309F420FD163695B5D9E42B2
:100D20000BD104EB850332464146986922F088FFD7
:100D300018B960682844BDE8F8830135E4E700BFCE
:100D4000281C00202DE9F84381460E46FFF7CCFF12
:100D50000246002840F08C80FF2E03D946494748C0
:100D60000BF082F8464CD4F8E401751CA0B1D4F81D
:100D7000EC31D4F8E8112B448B420DD92944FFF70C
:100D8000B7F90746F0B90246D4F8EC11D4F8E401FB
:100D9000FFF7AEF9C4F8E471D4F8E431F3B9802D6B
:100DA0002F4638BF80273846FFF787F9C4F8E4019B
:100DB00078B92846FFF781F9C4F8E40140B928461C
:100DC0000BF01AFED4F8E8312B44C4F8E831E3E71D
:100DD0002F460023C4F8E871C4F8EC31D4F8EC31A4
:100DE000D4F8E4711D44314648461F44C4F8EC5120
:100DF000FFF75EFF49468046324638464FF000090D
:100E000022F0C8FE07F80690236A9D68DB68AB42B3
:100E10001ED36D000A2D38BF0A25C5EBC50018305A
:100E2000FFF74BF910B9C4F8E401C8E700F1180363
:100E3000226A026003EB8503036103EB4503436110
:100E40005368D268856013444360C0F80C902062F8
:100E5000236ADA6819695B6921F812809E54911D32
:100E6000236A43F82170D96858680131D960024477
:100E70001046BDE8F88300BF13B70508F4F805086D
:100E8000281C002010B5044622F0FCFE0146204636
:100E9000BDE81040FFF756BF07B502AB43F8040D9D
:100EA0001846FFF7F7FE019A036933F8120003B002
:100EB0005DF804FB07B502AB43F8040D1846FFF7D5
:100EC000E9FE019B4269D05C03B05DF804FB07B505
:100ED00002AB43F8040D1846FFF7DCFE019B063316
:100EE00050F8230003B05DF804FB13B502AB0C46C9
:100EF00043F8040D1846FFF7CDFE019B4269D25C12
:100F00002260063350F8230002B010BD2DE9F843EB
:100F10001D46002303600B6013602B60164BDFF847
:100F20005C901C6A0746884616460CB14C4505D1B4
:100F30002B68326813442B60BDE8F8833B680133AB
:100F40003B60E268D8F800301344C8F800306269AA
:100F5000E368D1188A4207D32046FFF753FC2B6879
:100F6000246818442860E0E7336812F8010B013365
:100F700003443360EEE700BF281C0020F080060821
:100F80002DE9F8430D4B0E4F1C6ADFF83880DFF86F
:100F900038900CB1BC4201D1BDE8F883E36804F19C
:100FA000180505EB8306B54201D32468F1E755F82F
:100FB000042B41464846E2F7EBFCF4E7281C0020EE
:100FC000F08006080CB705088CD90508F0B51B4E53
:100FD0000131002320250A780AB90270F0BD1206FB
:100FE00023D50BB1057001300A78334602F07F0239
:100FF00072B9013B044613F8012F12F0800F04F17F
:1010000001000ED002F07F02227001230131E2E7DD
:101010001C46013394F90070002FF9DA013AD2B27C
:10102000E6E7044600F8012CE5E7012B04BF057054
:1010300001300B78037001300223E7E7499105087E
:1010400038B5446803680C449C42054610D9037BBC
:10105000DB0703D5002107480AF006FF103424F00F
:101060000704083421468068FFF737F82C60A86031
:1010700038BD00BFF4F8050870B504460E461146A9
:101080001546FFF7DDFFA06863682A46314618441D
:1010900022F0ACFD62682A44626070BD70B546689B
:1010A00004468E42354628BF0D460121FFF7C8FF92
:1010B000A368681C5919721B184422F097FD6368D5
:1010C000A06801336360284470BD38B5044600252C
:1010D000002914BF0846012020606560FEF7E2FF8A
:1010E000237BA06065F30003237338BD38B5054644
:1010F0000C460131FFF7E9FF6C6038BD0023436007
:10110000037B016043F001038260037370470000BA
:1011100038B514460546FFF7D8FF024B25606360DB
:1011200038BD00BF79100208037BDB0710B5044609
:1011300002D48068FEF7DEFF0023A36010BD38B53F
:1011400005461020FEF7AEFF29460446FFF7BDFF17
:10115000204638BD10B5044650B1037BDB0702D4EE
:101160008068FEF7C7FF2046BDE81040FEF7C2BF0B
:1011700010BD000038B5037BDB0704460D4603D5E0
:10118000002107480AF070FE016880682944FEF7D4
:10119000A4FF2368A0601D442560184438BD00BF2B
:1011A000F4F8050838B504460D46FFF749FF6368B3
:1011B000A0681D446560184438BD90E80C009A4250
:1011C00010B5044602D10121FFF7D4FFA26863687D
:1011D0000021D154A06810BD10B50C460121FFF7C5
:1011E000E1FF047010BD7F29F8B50D4604D8012138
:1011F000FFF7D8FF0570F8BDB1F5006F4FEA911405
:1012000001F03F0609D20221FFF7CCFF64F03F0452
:1012100066F07F0604704670F8BDB1F5803F4FEA76
:1012200011370ED20321FFF7BDFF04F03F0467F032
:101230001F0764F07F0466F07F06077044708670B5
:10124000F8BD0421FFF7AEFFAD0C07F03F0704F037
:101250003F0465F00F0567F07F0764F07F0466F0D8
:101260007F06057047708470C670F8BD38B50546B6
:1012700008460C4622F006FD214602462846BDE8F7
:101280003840FFF7F9BE10B51446FFF707FF0470AA
:1012900010BD10B51446FFF701FF047010BD436880
:1012A0008B4234BF00235B1A4360704738B5154644
:1012B00042688A4204460B460ED929448A4201D824
:1012C000436038BD8068D21A521B0144184422F092
:1012D0008DFC6268521B626038BD03781A060AD51D
:1012E00003F07F034022134207D110F8012F02F0D0
:1012F000C001802905D01846704723EA020352082E
:10130000F1E702F03F0242EA8313EEE7421C104687
:101310000132037803F0C003802BF8D0704700231C
:10132000814201D81846704711F8012D02F0C00221
:10133000802A18BF0133F3E7014403460020994295
:101340001A4600D87047127802F0C002802A03F1D2
:10135000010318BF0130F2E77F289DBF024B185CE4
:10136000C0F3400000207047C1D905087F289DBF09
:10137000024B185CC0F3C00000207047C1D90508BB
:101380007F289DBF024B185CC0F38000002070478F
:10139000C1D905087F289DBF024B185CC0F380109F
:1013A00000207047C1D905087F2809D8064B1B5C6F
:1013B00013F00C0F06D1A0F15F035842584170475B
:1013C0000020704701207047C1D905087F289DBFC4
:1013D000024B185CC0F3001000207047C1D905080B
:1013E0007F289DBF024B185CC0F34010002070475F
:1013F000C1D9050808B50246FFF7E8FF00B1203261
:10140000104608BD08B50246FFF7EAFF00B1203AD2
:10141000104608BD3038092884BF20F02000073866
:10142000704710B501440246E5240020914203D8DC
:10143000B0FA80F0400910BD12F8013B30B103F062
:10144000C003802B11D10138C0B2EFE7BF2B09D9FF
:10145000F72B09D8DB0803F0060344FA03F303F083
:101460000300E3E71B06E1D510BD0020FCE70239CD
:1014700081420B4603D31A880239002AF8D002337E
:10148000181A4010704770B51C09944215D2121BEF
:1014900001EB4401154603F00F030E46012D31F810
:1014A000024B18BF3468DC40A4B2013D20F8024B67
:1014B000F3D104B9013A104670BD0022FBE7F0B544
:1014C000059C0025121B2E46AC420FD16400051965
:1014D000023C0C442F46114699B905EB420316B164
:1014E00025F812600233181A4010F0BD31F815705B
:1014F00033F815E077443E4420F81560360C01358A
:10150000E2E734F8023F1E4427F8026B0139360C3B
:10151000E2E7F0B4049C0025121B2F46AC420BD12D
:1015200064000519023C0C44134629467BB905EBBF
:101530004201F0BCFFF79BBF31F815603E4433F821
:101540001570F61B20F8156037140135E6E734F8FE
:10155000026F3E4421F8026B3714013BE6E72DE9A8
:10156000F043079C089F099EDDF828C0551E0239EC
:1015700086464FF6FF78A4EB02096C1C09D100EBFC
:10158000420117B120F812700231BDE8F043FFF7B5
:101590006EBF31F8024F4444264409EB0504A542CE
:1015A0002ABF1C884FF6FF744444644486EA040C46
:1015B00017FA8CF72EF8027B28BF02334FEA144C3F
:1015C000360C3F0C013DD8E710B5044638B18068B1
:1015D000FEF790FD2046BDE81040FEF78BBD10BD24
:1015E00038B502290446806838BF02210D4618B17B
:1015F0002368B1EB930F07D96900FEF76EFD2368EE
:10160000A06065F39F03236038BD38B505460C2004
:10161000FEF748FD2A78037862F300036FF3410375
:101620000446037028682368C0F39D0060F39F039D
:1016300023606B6863604000FEF734FDA0602A6899
:10164000A968C2F39D02520022F0A4FA204638BDD8
:1016500010B54B0018441A4409B9084610BD30F8BB
:10166000023D32F8024D1B1B002B02DB04D1013975
:10167000F2E74FF0FF3010BD012010BD38B5054630
:101680000C460221FFF7ACFF2B78002CB5BF43F0CE
:1016900001036FF300032B702B704FF00003B8BFF2
:1016A00064426B6004B938BD6B68AA68581C6860F6
:1016B00022F81340240CF5E7037803F0FE036FF3E0
:1016C0004103037003686FF39F03036000234360CB
:1016D0008360704728B103789B0702D48068FEF7C7
:1016E00009BD704738B505460C464968FFF778FFD5
:1016F00022782B78A86862F300032B7063686B6014
:101700006268A1685200BDE8384022F043BA0A4638
:1017100029B90178426062F3000101707047FFF758
:10172000ADBF08B5FFF7C8FFBDE80840FFF7EFBF42
:1017300030B40578816005F0FE0545F002050570BE
:10174000056862F39F05002205604260194630BCBF
:10175000FFF7DDBFF8B504469DF8185004211F4679
:101760001646FFF73DFF23787DB1002E77F100028A
:101770000BDA43F001037642237067EB4707002141
:10178000616056EA070304D1F8BD6FF300032370CC
:10179000F5E76168A0684D1C656020F81160310CA8
:1017A00041EA0741380C0E460746EAE710EE102AD8
:1017B0000378D10F61F300032DE9F0410370C2F308
:1017C0000F4313F4FF43054607D12B786FF3000353
:1017D0002B7000236B60BDE8F081B3F5FF4FF4D0B0
:1017E000C2F3C754A4F17F03002BEEDB04D1012127
:1017F000BDE8F041FFF742BF162BC2F31602D8BF77
:101800004FF00008A4F16F064FF0100142F40007FA
:1018100096FBF1F6D3BFC3F117030933963C444658
:10182000C8BF94FBF1F43146D4BFDF4003F00F088A
:10183000FFF7D6FE6E6024B162000021A86822F096
:10184000EBF9B8F1000F08D0AB6807FA08F223F8FB
:101850001420C8F11003DF4001346300B44201D109
:10186000BDE8F081AA680134D7523F0C0233F5E796
:101870002DE9F84304468F18C2F35B020D469846E3
:10188000511C089EFFF7ACFE2278B8F1000F0BD078
:1018900042F001020023227063602846B1B2B842D0
:1018A00005D3401BBDE8F88368F30002F2E7027835
:1018B000A2F13003092B00F1010E05D9A2F1410379
:1018C000192B15D8A2F13703B342EAD2A068D4F895
:1018D00004C09BB2624680468AB900EB4C0213B149
:1018E00020F81C300232121A521062607046D6E79D
:1018F000A2F16103192BD4D8A2F15703E4E7B8F899
:10190000009009FB013328F8023B013A1B0CE3E786
:10191000F8B5044615461E46C1B1531E1E444FF08D
:10192000FF37E9000F3109092046FFF759FE2378F8
:1019300000216FF30003237061604DB9A0686168F6
:1019400000EB4101FFF793FD6060F8BD0127E8E778
:1019500000230F2908DC32788A401343013D9BB2F3
:1019600001F108013E44F4D16268501C6060A06837
:10197000103920F81230E0E738B50B7805780446C6
:1019800003F0010305F00100181A0A460BD1616843
:101990005368994208D30AD89268A068FFF758FEA6
:1019A000EB0748BF404238BD4FF0FF30F8E7012059
:1019B000F6E7884210B5044601D0FFF793FE23787E
:1019C0006FF30003237010BD884210B5044601D0A8
:1019D000FFF788FE63683BB12378C3F30002C2F1CE
:1019E000010262F30003237010BD88421FB5044654
:1019F00001D0FFF777FE626862B901212046FFF748
:101A0000EFFDA268012313806360237843F0010394
:101A1000237010E02378D9070FD56FF30003A16876
:101A200023700123ADF80E30009308460DF10E032C
:101A3000FFF76FFD606004B010BD511C2046FFF73A
:101A4000CFFDA16862680123ADF80E30009308460F
:101A50000DF10E03FFF733FD6060D6E72DE9F04787
:101A60000F4649680646154601B12AB9394630463F
:101A7000BDE8F047FFF736BE02F10F042409214408
:101A8000FFF7AEFD7968B368B8686FF0004E04EBFD
:101A9000010815F00F026FF0010C08EB0E054FEA7C
:101AA00045050CFB01FC8E440CEB4E0E08BF1022CA
:101AB0002B44704499464FF0000EC2F1100209BB4E
:101AC0002EFA02FE03EB0C0923F80CE06300C3F1CD
:101AD000020304F100429944013A4846520022F0C0
:101AE0009BF80235A944B8F1000F02D039F8023D45
:101AF000A3B1C6F804803A78337862F300033370F8
:101B0000BDE8F08730F811A04AEA0E0E2EFA02FA6C
:101B100029F802A94FEA0E4E0139D0E708F1FF3843
:101B2000E1E7F0B50E46496885B00546144601B1B7
:101B30002AB931462846FFF7D5FD05B0F0BDFFF7BD
:101B40004FFD23467268B168A868FFF79CFC686087
:101B500031782B7861F300032B70DB070246ECD55C
:101B600000237068ADF80E302109834202D08B4209
:101B700013D103469942E0D2B36804F00F0433F85E
:101B80001110012303FA04F4013C214218BFADF8FF
:101B90000E30BDF80E304BB9CFE7B76837F8137089
:101BA0007FB101238142ADF80E30E5D30123A9684E
:101BB0004AB1009308460DF10E03FFF780FC686000
:101BC000BBE70133D1E70B806B60B6E773B55368B1
:101BD0000C46496899420646154606D308D89268CD
:101BE000A068FFF735FD002802DA23462C461D4683
:101BF00023782A7861685340DB0719D401313046D5
:101C0000FFF7EEFC6B680093AB686268A168B06890
:101C1000FFF755FC706072682378002A0CBF002320
:101C200003F00103327863F30002327002B070BD3A
:101C30003046FFF7D5FC6B680093AB686268A1681B
:101C4000B068FFF766FCE5E7F7B553680C464968EE
:101C500099420546164606D324D89268A068FFF735
:101C6000F7FC00281EDA2346012734461E46237857
:101C7000327861685340DB0716D501312846FFF7FB
:101C8000AFFC73680093B3686268A168A868FFF747
:101C900016FC68606A682B7892B962F300032B70B7
:101CA00003B0F0BD0027E2E72846FFF799FC736810
:101CB0000093B3686268A168A868FFF72AFCE8E7A8
:101CC0002278002FE9D0C2F30002C2F10102E4E75A
:101CD0002DE9F04F16464A6873689A420C463EBF9B
:101CE00034460B461E462378DA0785B0054623D4D2
:101CF000337813F001071FD16168FFF771FCA86802
:101D0000A468D6F808E071683B4699420BD100EB15
:101D10004101FFF7ACFB2B7868606FF300032B7079
:101D200005B0BDE8F08F34F813203EF81360324060
:101D300020F813200133E8E7616828460131FFF7F6
:101D40004FFC22783178D4F804E0A868D6F80880EF
:101D500082EA0103DB4303F001035F420093A368BF
:101D6000BFB202F00102A3F1020A7368029701F008
:101D700001015742BFB2C1F1000CA3EB0E03019762
:101D80001FFA8CFC0EF1FF37814603937B1C14D1A4
:101D9000009B00EB4E011BB1012320F81E300231E5
:101DA000FFF765FB686032782378C2F300021340C6
:101DB0002A7863F300022A70B2E73AF802BF019B67
:101DC0008BEA030B039B5A4403EB070BBB4598BFFD
:101DD000B8F800B0029B94BF8CEA0B0BE346594461
:101DE00002EA010B8BEA030B009B13FA8BF329F831
:101DF000023B4FEA134398BF08F10208090C120C8A
:101E00000093013FC2E72DE9F84F17464A687B6807
:101E10009A420C463EBF3C460B461F462378DA07E3
:101E2000064631D43B7813F001052DD16168FFF7E8
:101E3000D7FBA1687A686468B068D7F808E0A41A8C
:101E40002B469A4211D152008318023A0A441D4689
:101E5000214699B903EB44031B1A5B107360337876
:101E600061F300033370BDE8F88F31F813503EF88A
:101E700013703D4320F813500133E2E732F8027F3C
:101E800025F8027B0139E4E7616830460131FFF74C
:101E9000A7FB257897F800E061687B68B068A468C4
:101EA000BF6805F001050EF0010EC5F10008CEF186
:101EB000000C1FFA88F81FFA8CFC4A1E023C82466E
:101EC0004FF00109A3EB010B531C08D100EB4101BA
:101ED000FFF7CDFA3378706043F00103C2E734F8BE
:101EE000023F83EA08031D440BEB0203934296BFB3
:101EF0003B8863468CEA03039E4445EA0E036FEA7F
:101F0000030319FA83F398BF02372AF8023B4FEA1A
:101F10001E4E2D0C4FEA1349013AD5E7F0B516468F
:101F20004A6873689A4238BF0B460C463CBF344639
:101F30001E462778337861685F4017F0010785B047
:101F400005463BD1FFF74CFB237813F0010329D161
:101F500072686168A868A768D6F808E0891A9A428A
:101F600011D152008418023A3A440B4626469BB9D6
:101F700004EB4101FFF77BFA2B7868606FF30003F5
:101F80002B7005B0F0BD37F813403EF81360744075
:101F900020F813400133E2E732F8027F26F8027B93
:101FA000013BE4E703970297019773680093B368D6
:101FB0006268A168A868FFF7D2FADDE70131FFF790
:101FC0000FFB3378A868DB4303F001030393237806
:101FD000DB4303F001030293012301937368009331
:101FE000B3686268A168FFF7BAFA2B78686043F0BB
:101FF0000103C5E72DE9F04F4B6885B004460E4656
:1020000015460BB1536843B923786FF3000323706F
:102010000023636005B0BDE8F08F814207D1FFF770
:10202000F4FAB542074600D105463E4605E0824235
:102030002DD1FFF7EAFA074605466B68716820461E
:102040001944FFF7CDFA2268A068C2F39D0252003E
:10205000002121F0E1FDB368D6F804E0D4F808A02F
:1020600002936FF0010303FB0EF3D5F808806A6852
:1020700003930AEB4E010020039B03EB010C42B3D8
:10208000029BCDF804E0A3F10209002310E0002731
:10209000D3E739F8020FB8F800B00BFB0033BCF8F7
:1020A00000B001985B4401382CF8023B01901B0CF6
:1020B00001980028EDD1084601F1020C0BB10B800C
:1020C0006046A0EB0A004010013A08F102086146A0
:1020D000D2E76060337829784B4013F0010F237802
:1020E00038460CBF62F3000343F00103237005B0D0
:1020F000BDE8F04FFFF768BA4B6870B50546144667
:1021000013B11378DA0706D52B786FF300032B7021
:1021100000236B6070BD636823B90121BDE8704086
:10212000FFF7ACBA0846FFF770FA06462046FFF7FD
